{
  "_format": "hh-sol-artifact-1",
  "contractName": "FtsoV2FeedConsumer",
  "sourceName": "contracts/FtsoV2FeedConsumer.sol",
  "abi": [
    {
      "inputs": [
        {
          "internalType": "uint256",
          "name": "",
          "type": "uint256"
        }
      ],
      "name": "feedIds",
      "outputs": [
        {
          "internalType": "bytes21",
          "name": "",
          "type": "bytes21"
        }
      ],
      "stateMutability": "view",
      "type": "function"
    },
    {
      "inputs": [],
      "name": "getFtsoV2CurrentFeedValues",
      "outputs": [
        {
          "internalType": "uint256[]",
          "name": "_feedValues",
          "type": "uint256[]"
        },
        {
          "internalType": "int8[]",
          "name": "_decimals",
          "type": "int8[]"
        },
        {
          "internalType": "uint64",
          "name": "_timestamp",
          "type": "uint64"
        }
      ],
      "stateMutability": "nonpayable",
      "type": "function"
    }
  ],
  "bytecode": "0x6106e0604052665193148bd554d160c21b60809081526654d1d08bd554d160c21b60a05266509510cbd554d160c21b60c052665614940bd554d160c21b60e05266531510cbd554d160c21b61010052665613134bd554d160c21b61012052675113d1d14bd554d160ba1b61014052665051104bd554d160c21b6101605267505311d3cbd554d160ba1b61018052665155120bd554d160c21b6101a052665192530bd554d160c21b6101c052665054908bd554d160c21b6101e05267505590560bd554d160ba1b61020052665093908bd554d160c21b61022052665413d30bd554d160c21b610240526654d3d30bd554d160c21b61026052675554d110cbd554d160ba1b61028052675554d1150bd554d160ba1b6102a05266561110cbd554d160c21b6102c052665514960bd554d160c21b6102e0526753125392cbd554d160ba1b6103005267505513d34bd554d160ba1b61032052665113d50bd554d160c21b61034052665513d38bd554d160c21b61036052665250d40bd554d160c21b610380526754d212508bd554d160ba1b6103a052665110524bd554d160c21b6103c052665090d20bd554d160c21b6103e05267539150548bd554d160ba1b6104005266531153cbd554d160c21b61042052665553924bd554d160c21b6104405266515510cbd554d160c21b610460526655d2518bd554d160c21b61048052675093d392cbd554d160ba1b6104a052665295540bd554d160c21b6104c0526851551211924bd554d160b21b6104e052665153904bd554d160c21b6105005267541655120bd554d160ba1b61052052665213950bd554d160c21b610540526654d5524bd554d160c21b6105605267541154114bd554d160ba1b61058052665453950bd554d160c21b6105a05267505055914bd554d160ba1b6105c052665195134bd554d160c21b6105e0526753d39113cbd554d160ba1b6106005266551053cbd554d160c21b61062052665191550bd554d160c21b61064052695491539111548bd554d160aa1b61066052665393d50bd554d160c21b6106805267549553914bd554d160ba1b6106a0526855149553540bd554d160b21b6106c052610324906001906033610337565b5034801561033157600080fd5b506103ac565b828054828255906000526020600020908101928215610387579160200282015b8281111561038757825182546001600160a81b03191660589190911c178255602090920191600190910190610357565b50610393929150610397565b5090565b5b808211156103935760008155600101610398565b61054e806103bb6000396000f3fe608060405234801561001057600080fd5b50600436106100365760003560e01c8063b7f433d11461003b578063f601bc8b14610070575b600080fd5b61004e610049366004610212565b610087565b6040516affffffffffffffffffffff1990911681526020015b60405180910390f35b6100786100ab565b6040516100679392919061022b565b6001818154811061009757600080fd5b60009182526020909120015460581b905081565b60608060006100b8610149565b600080546001600160a01b0319166001600160a01b03929092169182179055604051634c37574560e01b8152634c375745906100f9906001906004016102c1565b600060405180830381865afa158015610116573d6000803e3d6000fd5b505050506040513d6000823e601f3d908101601f1916820160405261013e919081019061041c565b925092509250909192565b600073ad67fe66660fb8dfe9d6b1b4240d8650e30f60196001600160a01b031663159354a260405160200161019890602080825260069082015265233a39b7ab1960d11b604082015260600190565b604051602081830303815290604052805190602001206040518263ffffffff1660e01b81526004016101cc91815260200190565b602060405180830381865afa1580156101e9573d6000803e3d6000fd5b505050506040513d601f19601f8201168201806040525081019061020d91906104e8565b905090565b60006020828403121561022457600080fd5b5035919050565b60608082528451908201819052600090602090608084019082880184805b8381101561026557825185529385019391850191600101610249565b5086840385880152885180855289860194860193509150805b8281101561029c578451820b8452938501939285019260010161027e565b50505067ffffffffffffffff8616604086015292506102b9915050565b949350505050565b6020808252825482820181905260008481528281209092916040850190845b8181101561030d57835460581b6affffffffffffffffffffff1916835260019384019392850192016102e0565b50909695505050505050565b634e487b7160e01b600052604160045260246000fd5b604051601f8201601f1916810167ffffffffffffffff8111828210171561035857610358610319565b604052919050565b600067ffffffffffffffff82111561037a5761037a610319565b5060051b60200190565b600082601f83011261039557600080fd5b815160206103aa6103a583610360565b61032f565b82815260059290921b840181019181810190868411156103c957600080fd5b8286015b848110156103f4578051600081810b82146103e6578081fd5b5083529183019183016103cd565b509695505050505050565b805167ffffffffffffffff8116811461041757600080fd5b919050565b60008060006060848603121561043157600080fd5b835167ffffffffffffffff8082111561044957600080fd5b818601915086601f83011261045d57600080fd5b8151602061046d6103a583610360565b82815260059290921b8401810191818101908a84111561048c57600080fd5b948201945b838610156104aa57855182529482019490820190610491565b918901519197509093505050808211156104c357600080fd5b506104d086828701610384565b9250506104df604085016103ff565b90509250925092565b6000602082840312156104fa57600080fd5b81516001600160a01b038116811461051157600080fd5b939250505056fea2646970667358221220adb25fe669b338cea51990867a4d040f0189f64a3e4322c20b303d3c7677330f64736f6c63430008140033",
  "linkReferences": {},
  "deployedLinkReferences": {}
}