{"contracts/FtsoV2FeedConsumer.sol":{"FtsoV2FeedConsumer":{"abi":[{"inputs":[{"internalType":"uint256","name":"","type":"uint256"}],"name":"feedIds","outputs":[{"internalType":"bytes21","name":"","type":"bytes21"}],"stateMutability":"view","type":"function"},{"inputs":[],"name":"getFtsoV2CurrentFeedValues","outputs":[{"internalType":"uint256[]","name":"_feedValues","type":"uint256[]"},{"internalType":"int8[]","name":"_decimals","type":"int8[]"},{"internalType":"uint64","name":"_timestamp","type":"uint64"},{"internalType":"bytes21[]","name":"_feedIds","type":"bytes21[]"}],"stateMutability":"nonpayable","type":"function"}],"evm":{"bytecode":{"linkReferences":{},"object":"6106e0604052665193148bd554d160c21b60809081526654d1d08bd554d160c21b60a05266509510cbd554d160c21b60c052665614940bd554d160c21b60e05266531510cbd554d160c21b61010052665613134bd554d160c21b61012052675113d1d14bd554d160ba1b61014052665051104bd554d160c21b6101605267505311d3cbd554d160ba1b61018052665155120bd554d160c21b6101a052665192530bd554d160c21b6101c052665054908bd554d160c21b6101e05267505590560bd554d160ba1b61020052665093908bd554d160c21b61022052665413d30bd554d160c21b610240526654d3d30bd554d160c21b61026052675554d110cbd554d160ba1b61028052675554d1150bd554d160ba1b6102a05266561110cbd554d160c21b6102c052665514960bd554d160c21b6102e0526753125392cbd554d160ba1b6103005267505513d34bd554d160ba1b61032052665113d50bd554d160c21b61034052665513d38bd554d160c21b61036052665250d40bd554d160c21b610380526754d212508bd554d160ba1b6103a052665110524bd554d160c21b6103c052665090d20bd554d160c21b6103e05267539150548bd554d160ba1b6104005266531153cbd554d160c21b61042052665553924bd554d160c21b6104405266515510cbd554d160c21b610460526655d2518bd554d160c21b61048052675093d392cbd554d160ba1b6104a052665295540bd554d160c21b6104c0526851551211924bd554d160b21b6104e052665153904bd554d160c21b6105005267541655120bd554d160ba1b61052052665213950bd554d160c21b610540526654d5524bd554d160c21b6105605267541154114bd554d160ba1b61058052665453950bd554d160c21b6105a05267505055914bd554d160ba1b6105c052665195134bd554d160c21b6105e0526753d39113cbd554d160ba1b6106005266551053cbd554d160c21b61062052665191550bd554d160c21b61064052695491539111548bd554d160aa1b61066052665393d50bd554d160c21b6106805267549553914bd554d160ba1b6106a0526855149553540bd554d160b21b6106c052610324906001906033610337565b5034801561033157600080fd5b506103ac565b828054828255906000526020600020908101928215610387579160200282015b8281111561038757825182546001600160a81b03191660589190911c178255602090920191600190910190610357565b50610393929150610397565b5090565b5b808211156103935760008155600101610398565b61060a806103bb6000396000f3fe608060405234801561001057600080fd5b50600436106100365760003560e01c8063b7f433d11461003b578063f601bc8b1461006c575b600080fd5b61004e610049366004610280565b610084565b6040516001600160581b031990911681526020015b60405180910390f35b6100746100a8565b60405161006394939291906102de565b6001818154811061009457600080fd5b60009182526020909120015460581b905081565b606080600060606100b76101b7565b600080546001600160a01b0319166001600160a01b03929092169182179055604051634c37574560e01b8152634c375745906100f890600190600401610381565b600060405180830381865afa158015610115573d6000803e3d6000fd5b505050506040513d6000823e601f3d908101601f1916820160405261013d91908101906104d8565b600180546040805160208084028201810190925282815295995093975091955087938793879383918301828280156101a257602002820191906000526020600020905b815460581b6001600160581b0319168152600190910190602001808311610180575b50505050509050935093509350935090919293565b600073ad67fe66660fb8dfe9d6b1b4240d8650e30f60196001600160a01b031663159354a260405160200161020690602080825260069082015265233a39b7ab1960d11b604082015260600190565b604051602081830303815290604052805190602001206040518263ffffffff1660e01b815260040161023a91815260200190565b602060405180830381865afa158015610257573d6000803e3d6000fd5b505050506040513d601f19601f8201168201806040525081019061027b91906105a4565b905090565b60006020828403121561029257600080fd5b5035919050565b600081518084526020808501945080840160005b838110156102d35781516001600160581b031916875295820195908201906001016102ad565b509495945050505050565b6080808252855190820181905260009060209060a084019082890184805b83811015610318578251855293850193918501916001016102fc565b508684038588015289518085528a860194860193509150805b8281101561034f578451820b84529385019392850192600101610331565b50505067ffffffffffffffff8716604086015284810360608601526103748187610299565b9998505050505050505050565b6020808252825482820181905260008481528281209092916040850190845b818110156103c957835460581b6001600160581b031916835260019384019392850192016103a0565b50909695505050505050565b634e487b7160e01b600052604160045260246000fd5b604051601f8201601f1916810167ffffffffffffffff81118282101715610414576104146103d5565b604052919050565b600067ffffffffffffffff821115610436576104366103d5565b5060051b60200190565b600082601f83011261045157600080fd5b815160206104666104618361041c565b6103eb565b82815260059290921b8401810191818101908684111561048557600080fd5b8286015b848110156104b0578051600081810b82146104a2578081fd5b508352918301918301610489565b509695505050505050565b805167ffffffffffffffff811681146104d357600080fd5b919050565b6000806000606084860312156104ed57600080fd5b835167ffffffffffffffff8082111561050557600080fd5b818601915086601f83011261051957600080fd5b815160206105296104618361041c565b82815260059290921b8401810191818101908a84111561054857600080fd5b948201945b838610156105665785518252948201949082019061054d565b9189015191975090935050508082111561057f57600080fd5b5061058c86828701610440565b92505061059b604085016104bb565b90509250925092565b6000602082840312156105b657600080fd5b81516001600160a01b03811681146105cd57600080fd5b939250505056fea2646970667358221220aea3ddc274b5b5b535405c86520a08b7790f66bff3089ae5a057fb700f20df2a64736f6c63430008140033","opcodes":"PUSH2 0x6E0 PUSH1 0x40 MSTORE PUSH7 0x5193148BD554D1 PUSH1 0xC2 SHL PUSH1 0x80 SWAP1 DUP2 MSTORE PUSH7 0x54D1D08BD554D1 PUSH1 0xC2 SHL PUSH1 0xA0 MSTORE PUSH7 0x509510CBD554D1 PUSH1 0xC2 SHL PUSH1 0xC0 MSTORE PUSH7 0x5614940BD554D1 PUSH1 0xC2 SHL PUSH1 0xE0 MSTORE PUSH7 0x531510CBD554D1 PUSH1 0xC2 SHL PUSH2 0x100 MSTORE PUSH7 0x5613134BD554D1 PUSH1 0xC2 SHL PUSH2 0x120 MSTORE PUSH8 0x5113D1D14BD554D1 PUSH1 0xBA SHL PUSH2 0x140 MSTORE PUSH7 0x5051104BD554D1 PUSH1 0xC2 SHL PUSH2 0x160 MSTORE PUSH8 0x505311D3CBD554D1 PUSH1 0xBA SHL PUSH2 0x180 MSTORE PUSH7 0x5155120BD554D1 PUSH1 0xC2 SHL PUSH2 0x1A0 MSTORE PUSH7 0x5192530BD554D1 PUSH1 0xC2 SHL PUSH2 0x1C0 MSTORE PUSH7 0x5054908BD554D1 PUSH1 0xC2 SHL PUSH2 0x1E0 MSTORE PUSH8 0x505590560BD554D1 PUSH1 0xBA SHL PUSH2 0x200 MSTORE PUSH7 0x5093908BD554D1 PUSH1 0xC2 SHL PUSH2 0x220 MSTORE PUSH7 0x5413D30BD554D1 PUSH1 0xC2 SHL PUSH2 0x240 MSTORE PUSH7 0x54D3D30BD554D1 PUSH1 0xC2 SHL PUSH2 0x260 MSTORE PUSH8 0x5554D110CBD554D1 PUSH1 0xBA SHL PUSH2 0x280 MSTORE PUSH8 0x5554D1150BD554D1 PUSH1 0xBA SHL PUSH2 0x2A0 MSTORE PUSH7 0x561110CBD554D1 PUSH1 0xC2 SHL PUSH2 0x2C0 MSTORE PUSH7 0x5514960BD554D1 PUSH1 0xC2 SHL PUSH2 0x2E0 MSTORE PUSH8 0x53125392CBD554D1 PUSH1 0xBA SHL PUSH2 0x300 MSTORE PUSH8 0x505513D34BD554D1 PUSH1 0xBA SHL PUSH2 0x320 MSTORE PUSH7 0x5113D50BD554D1 PUSH1 0xC2 SHL PUSH2 0x340 MSTORE PUSH7 0x5513D38BD554D1 PUSH1 0xC2 SHL PUSH2 0x360 MSTORE PUSH7 0x5250D40BD554D1 PUSH1 0xC2 SHL PUSH2 0x380 MSTORE PUSH8 0x54D212508BD554D1 PUSH1 0xBA SHL PUSH2 0x3A0 MSTORE PUSH7 0x5110524BD554D1 PUSH1 0xC2 SHL PUSH2 0x3C0 MSTORE PUSH7 0x5090D20BD554D1 PUSH1 0xC2 SHL PUSH2 0x3E0 MSTORE PUSH8 0x539150548BD554D1 PUSH1 0xBA SHL PUSH2 0x400 MSTORE PUSH7 0x531153CBD554D1 PUSH1 0xC2 SHL PUSH2 0x420 MSTORE PUSH7 0x5553924BD554D1 PUSH1 0xC2 SHL PUSH2 0x440 MSTORE PUSH7 0x515510CBD554D1 PUSH1 0xC2 SHL PUSH2 0x460 MSTORE PUSH7 0x55D2518BD554D1 PUSH1 0xC2 SHL PUSH2 0x480 MSTORE PUSH8 0x5093D392CBD554D1 PUSH1 0xBA SHL PUSH2 0x4A0 MSTORE PUSH7 0x5295540BD554D1 PUSH1 0xC2 SHL PUSH2 0x4C0 MSTORE PUSH9 0x51551211924BD554D1 PUSH1 0xB2 SHL PUSH2 0x4E0 MSTORE PUSH7 0x5153904BD554D1 PUSH1 0xC2 SHL PUSH2 0x500 MSTORE PUSH8 0x541655120BD554D1 PUSH1 0xBA SHL PUSH2 0x520 MSTORE PUSH7 0x5213950BD554D1 PUSH1 0xC2 SHL PUSH2 0x540 MSTORE PUSH7 0x54D5524BD554D1 PUSH1 0xC2 SHL PUSH2 0x560 MSTORE PUSH8 0x541154114BD554D1 PUSH1 0xBA SHL PUSH2 0x580 MSTORE PUSH7 0x5453950BD554D1 PUSH1 0xC2 SHL PUSH2 0x5A0 MSTORE PUSH8 0x505055914BD554D1 PUSH1 0xBA SHL PUSH2 0x5C0 MSTORE PUSH7 0x5195134BD554D1 PUSH1 0xC2 SHL PUSH2 0x5E0 MSTORE PUSH8 0x53D39113CBD554D1 PUSH1 0xBA SHL PUSH2 0x600 MSTORE PUSH7 0x551053CBD554D1 PUSH1 0xC2 SHL PUSH2 0x620 MSTORE PUSH7 0x5191550BD554D1 PUSH1 0xC2 SHL PUSH2 0x640 MSTORE PUSH10 0x5491539111548BD554D1 PUSH1 0xAA SHL PUSH2 0x660 MSTORE PUSH7 0x5393D50BD554D1 PUSH1 0xC2 SHL PUSH2 0x680 MSTORE PUSH8 0x549553914BD554D1 PUSH1 0xBA SHL PUSH2 0x6A0 MSTORE PUSH9 0x55149553540BD554D1 PUSH1 0xB2 SHL PUSH2 0x6C0 MSTORE PUSH2 0x324 SWAP1 PUSH1 0x1 SWAP1 PUSH1 0x33 PUSH2 0x337 JUMP JUMPDEST POP CALLVALUE DUP1 ISZERO PUSH2 0x331 JUMPI PUSH1 0x0 DUP1 REVERT JUMPDEST POP PUSH2 0x3AC JUMP JUMPDEST DUP3 DUP1 SLOAD DUP3 DUP3 SSTORE SWAP1 PUSH1 0x0 MSTORE PUSH1 0x20 PUSH1 0x0 KECCAK256 SWAP1 DUP2 ADD SWAP3 DUP3 ISZERO PUSH2 0x387 JUMPI SWAP2 PUSH1 0x20 MUL DUP3 ADD JUMPDEST DUP3 DUP2 GT ISZERO PUSH2 0x387 JUMPI DUP3 MLOAD DUP3 SLOAD PUSH1 0x1 PUSH1 0x1 PUSH1 0xA8 SHL SUB NOT AND PUSH1 0x58 SWAP2 SWAP1 SWAP2 SHR OR DUP3 SSTORE PUSH1 0x20 SWAP1 SWAP3 ADD SWAP2 PUSH1 0x1 SWAP1 SWAP2 ADD SWAP1 PUSH2 0x357 JUMP JUMPDEST POP PUSH2 0x393 SWAP3 SWAP2 POP PUSH2 0x397 JUMP JUMPDEST POP SWAP1 JUMP JUMPDEST JUMPDEST DUP1 DUP3 GT ISZERO PUSH2 0x393 JUMPI PUSH1 0x0 DUP2 SSTORE PUSH1 0x1 ADD PUSH2 0x398 JUMP JUMPDEST PUSH2 0x60A DUP1 PUSH2 0x3BB PUSH1 0x0 CODECOPY PUSH1 0x0 RETURN INVALID PUSH1 0x80 PUSH1 0x40 MSTORE CALLVALUE DUP1 ISZERO PUSH2 0x10 JUMPI PUSH1 0x0 DUP1 REVERT JUMPDEST POP PUSH1 0x4 CALLDATASIZE LT PUSH2 0x36 JUMPI PUSH1 0x0 CALLDATALOAD PUSH1 0xE0 SHR DUP1 PUSH4 0xB7F433D1 EQ PUSH2 0x3B JUMPI DUP1 PUSH4 0xF601BC8B EQ PUSH2 0x6C JUMPI JUMPDEST PUSH1 0x0 DUP1 REVERT JUMPDEST PUSH2 0x4E PUSH2 0x49 CALLDATASIZE PUSH1 0x4 PUSH2 0x280 JUMP JUMPDEST PUSH2 0x84 JUMP JUMPDEST PUSH1 0x40 MLOAD PUSH1 0x1 PUSH1 0x1 PUSH1 0x58 SHL SUB NOT SWAP1 SWAP2 AND DUP2 MSTORE PUSH1 0x20 ADD JUMPDEST PUSH1 0x40 MLOAD DUP1 SWAP2 SUB SWAP1 RETURN JUMPDEST PUSH2 0x74 PUSH2 0xA8 JUMP JUMPDEST PUSH1 0x40 MLOAD PUSH2 0x63 SWAP5 SWAP4 SWAP3 SWAP2 SWAP1 PUSH2 0x2DE JUMP JUMPDEST PUSH1 0x1 DUP2 DUP2 SLOAD DUP2 LT PUSH2 0x94 JUMPI PUSH1 0x0 DUP1 REVERT JUMPDEST PUSH1 0x0 SWAP2 DUP3 MSTORE PUSH1 0x20 SWAP1 SWAP2 KECCAK256 ADD SLOAD PUSH1 0x58 SHL SWAP1 POP DUP2 JUMP JUMPDEST PUSH1 0x60 DUP1 PUSH1 0x0 PUSH1 0x60 PUSH2 0xB7 PUSH2 0x1B7 JUMP JUMPDEST PUSH1 0x0 DUP1 SLOAD PUSH1 0x1 PUSH1 0x1 PUSH1 0xA0 SHL SUB NOT AND PUSH1 0x1 PUSH1 0x1 PUSH1 0xA0 SHL SUB SWAP3 SWAP1 SWAP3 AND SWAP2 DUP3 OR SWAP1 SSTORE PUSH1 0x40 MLOAD PUSH4 0x4C375745 PUSH1 0xE0 SHL DUP2 MSTORE PUSH4 0x4C375745 SWAP1 PUSH2 0xF8 SWAP1 PUSH1 0x1 SWAP1 PUSH1 0x4 ADD PUSH2 0x381 JUMP JUMPDEST PUSH1 0x0 PUSH1 0x40 MLOAD DUP1 DUP4 SUB DUP2 DUP7 GAS STATICCALL ISZERO DUP1 ISZERO PUSH2 0x115 JUMPI RETURNDATASIZE PUSH1 0x0 DUP1 RETURNDATACOPY RETURNDATASIZE PUSH1 0x0 REVERT JUMPDEST POP POP POP POP PUSH1 0x40 MLOAD RETURNDATASIZE PUSH1 0x0 DUP3 RETURNDATACOPY PUSH1 0x1F RETURNDATASIZE SWAP1 DUP2 ADD PUSH1 0x1F NOT AND DUP3 ADD PUSH1 0x40 MSTORE PUSH2 0x13D SWAP2 SWAP1 DUP2 ADD SWAP1 PUSH2 0x4D8 JUMP JUMPDEST PUSH1 0x1 DUP1 SLOAD PUSH1 0x40 DUP1 MLOAD PUSH1 0x20 DUP1 DUP5 MUL DUP3 ADD DUP2 ADD SWAP1 SWAP3 MSTORE DUP3 DUP2 MSTORE SWAP6 SWAP10 POP SWAP4 SWAP8 POP SWAP2 SWAP6 POP DUP8 SWAP4 DUP8 SWAP4 DUP8 SWAP4 DUP4 SWAP2 DUP4 ADD DUP3 DUP3 DUP1 ISZERO PUSH2 0x1A2 JUMPI PUSH1 0x20 MUL DUP3 ADD SWAP2 SWAP1 PUSH1 0x0 MSTORE PUSH1 0x20 PUSH1 0x0 KECCAK256 SWAP1 JUMPDEST DUP2 SLOAD PUSH1 0x58 SHL PUSH1 0x1 PUSH1 0x1 PUSH1 0x58 SHL SUB NOT AND DUP2 MSTORE PUSH1 0x1 SWAP1 SWAP2 ADD SWAP1 PUSH1 0x20 ADD DUP1 DUP4 GT PUSH2 0x180 JUMPI JUMPDEST POP POP POP POP POP SWAP1 POP SWAP4 POP SWAP4 POP SWAP4 POP SWAP4 POP SWAP1 SWAP2 SWAP3 SWAP4 JUMP JUMPDEST PUSH1 0x0 PUSH20 0xAD67FE66660FB8DFE9D6B1B4240D8650E30F6019 PUSH1 0x1 PUSH1 0x1 PUSH1 0xA0 SHL SUB AND PUSH4 0x159354A2 PUSH1 0x40 MLOAD PUSH1 0x20 ADD PUSH2 0x206 SWAP1 PUSH1 0x20 DUP1 DUP3 MSTORE PUSH1 0x6 SWAP1 DUP3 ADD MSTORE PUSH6 0x233A39B7AB19 PUSH1 0xD1 SHL PUSH1 0x40 DUP3 ADD MSTORE PUSH1 0x60 ADD SWAP1 JUMP JUMPDEST PUSH1 0x40 MLOAD PUSH1 0x20 DUP2 DUP4 SUB SUB DUP2 MSTORE SWAP1 PUSH1 0x40 MSTORE DUP1 MLOAD SWAP1 PUSH1 0x20 ADD KECCAK256 PUSH1 0x40 MLOAD DUP3 PUSH4 0xFFFFFFFF AND PUSH1 0xE0 SHL DUP2 MSTORE PUSH1 0x4 ADD PUSH2 0x23A SWAP2 DUP2 MSTORE PUSH1 0x20 ADD SWAP1 JUMP JUMPDEST PUSH1 0x20 PUSH1 0x40 MLOAD DUP1 DUP4 SUB DUP2 DUP7 GAS STATICCALL ISZERO DUP1 ISZERO PUSH2 0x257 JUMPI RETURNDATASIZE PUSH1 0x0 DUP1 RETURNDATACOPY RETURNDATASIZE PUSH1 0x0 REVERT JUMPDEST POP POP POP POP PUSH1 0x40 MLOAD RETURNDATASIZE PUSH1 0x1F NOT PUSH1 0x1F DUP3 ADD AND DUP3 ADD DUP1 PUSH1 0x40 MSTORE POP DUP2 ADD SWAP1 PUSH2 0x27B SWAP2 SWAP1 PUSH2 0x5A4 JUMP JUMPDEST SWAP1 POP SWAP1 JUMP JUMPDEST PUSH1 0x0 PUSH1 0x20 DUP3 DUP5 SUB SLT ISZERO PUSH2 0x292 JUMPI PUSH1 0x0 DUP1 REVERT JUMPDEST POP CALLDATALOAD SWAP2 SWAP1 POP JUMP JUMPDEST PUSH1 0x0 DUP2 MLOAD DUP1 DUP5 MSTORE PUSH1 0x20 DUP1 DUP6 ADD SWAP5 POP DUP1 DUP5 ADD PUSH1 0x0 JUMPDEST DUP4 DUP2 LT ISZERO PUSH2 0x2D3 JUMPI DUP2 MLOAD PUSH1 0x1 PUSH1 0x1 PUSH1 0x58 SHL SUB NOT AND DUP8 MSTORE SWAP6 DUP3 ADD SWAP6 SWAP1 DUP3 ADD SWAP1 PUSH1 0x1 ADD PUSH2 0x2AD JUMP JUMPDEST POP SWAP5 SWAP6 SWAP5 POP POP POP POP POP JUMP JUMPDEST PUSH1 0x80 DUP1 DUP3 MSTORE DUP6 MLOAD SWAP1 DUP3 ADD DUP2 SWAP1 MSTORE PUSH1 0x0 SWAP1 PUSH1 0x20 SWAP1 PUSH1 0xA0 DUP5 ADD SWAP1 DUP3 DUP10 ADD DUP5 DUP1 JUMPDEST DUP4 DUP2 LT ISZERO PUSH2 0x318 JUMPI DUP3 MLOAD DUP6 MSTORE SWAP4 DUP6 ADD SWAP4 SWAP2 DUP6 ADD SWAP2 PUSH1 0x1 ADD PUSH2 0x2FC JUMP JUMPDEST POP DUP7 DUP5 SUB DUP6 DUP9 ADD MSTORE DUP10 MLOAD DUP1 DUP6 MSTORE DUP11 DUP7 ADD SWAP5 DUP7 ADD SWAP4 POP SWAP2 POP DUP1 JUMPDEST DUP3 DUP2 LT ISZERO PUSH2 0x34F JUMPI DUP5 MLOAD DUP3 SIGNEXTEND DUP5 MSTORE SWAP4 DUP6 ADD SWAP4 SWAP3 DUP6 ADD SWAP3 PUSH1 0x1 ADD PUSH2 0x331 JUMP JUMPDEST POP POP POP PUSH8 0xFFFFFFFFFFFFFFFF DUP8 AND PUSH1 0x40 DUP7 ADD MSTORE DUP5 DUP2 SUB PUSH1 0x60 DUP7 ADD MSTORE PUSH2 0x374 DUP2 DUP8 PUSH2 0x299 JUMP JUMPDEST SWAP10 SWAP9 POP POP POP POP POP POP POP POP POP JUMP JUMPDEST PUSH1 0x20 DUP1 DUP3 MSTORE DUP3 SLOAD DUP3 DUP3 ADD DUP2 SWAP1 MSTORE PUSH1 0x0 DUP5 DUP2 MSTORE DUP3 DUP2 KECCAK256 SWAP1 SWAP3 SWAP2 PUSH1 0x40 DUP6 ADD SWAP1 DUP5 JUMPDEST DUP2 DUP2 LT ISZERO PUSH2 0x3C9 JUMPI DUP4 SLOAD PUSH1 0x58 SHL PUSH1 0x1 PUSH1 0x1 PUSH1 0x58 SHL SUB NOT AND DUP4 MSTORE PUSH1 0x1 SWAP4 DUP5 ADD SWAP4 SWAP3 DUP6 ADD SWAP3 ADD PUSH2 0x3A0 JUMP JUMPDEST POP SWAP1 SWAP7 SWAP6 POP POP POP POP POP POP JUMP JUMPDEST PUSH4 0x4E487B71 PUSH1 0xE0 SHL PUSH1 0x0 MSTORE PUSH1 0x41 PUSH1 0x4 MSTORE PUSH1 0x24 PUSH1 0x0 REVERT JUMPDEST PUSH1 0x40 MLOAD PUSH1 0x1F DUP3 ADD PUSH1 0x1F NOT AND DUP2 ADD PUSH8 0xFFFFFFFFFFFFFFFF DUP2 GT DUP3 DUP3 LT OR ISZERO PUSH2 0x414 JUMPI PUSH2 0x414 PUSH2 0x3D5 JUMP JUMPDEST PUSH1 0x40 MSTORE SWAP2 SWAP1 POP JUMP JUMPDEST PUSH1 0x0 PUSH8 0xFFFFFFFFFFFFFFFF DUP3 GT ISZERO PUSH2 0x436 JUMPI PUSH2 0x436 PUSH2 0x3D5 JUMP JUMPDEST POP PUSH1 0x5 SHL PUSH1 0x20 ADD SWAP1 JUMP JUMPDEST PUSH1 0x0 DUP3 PUSH1 0x1F DUP4 ADD SLT PUSH2 0x451 JUMPI PUSH1 0x0 DUP1 REVERT JUMPDEST DUP2 MLOAD PUSH1 0x20 PUSH2 0x466 PUSH2 0x461 DUP4 PUSH2 0x41C JUMP JUMPDEST PUSH2 0x3EB JUMP JUMPDEST DUP3 DUP2 MSTORE PUSH1 0x5 SWAP3 SWAP1 SWAP3 SHL DUP5 ADD DUP2 ADD SWAP2 DUP2 DUP2 ADD SWAP1 DUP7 DUP5 GT ISZERO PUSH2 0x485 JUMPI PUSH1 0x0 DUP1 REVERT JUMPDEST DUP3 DUP7 ADD JUMPDEST DUP5 DUP2 LT ISZERO PUSH2 0x4B0 JUMPI DUP1 MLOAD PUSH1 0x0 DUP2 DUP2 SIGNEXTEND DUP3 EQ PUSH2 0x4A2 JUMPI DUP1 DUP2 REVERT JUMPDEST POP DUP4 MSTORE SWAP2 DUP4 ADD SWAP2 DUP4 ADD PUSH2 0x489 JUMP JUMPDEST POP SWAP7 SWAP6 POP POP POP POP POP POP JUMP JUMPDEST DUP1 MLOAD PUSH8 0xFFFFFFFFFFFFFFFF DUP2 AND DUP2 EQ PUSH2 0x4D3 JUMPI PUSH1 0x0 DUP1 REVERT JUMPDEST SWAP2 SWAP1 POP JUMP JUMPDEST PUSH1 0x0 DUP1 PUSH1 0x0 PUSH1 0x60 DUP5 DUP7 SUB SLT ISZERO PUSH2 0x4ED JUMPI PUSH1 0x0 DUP1 REVERT JUMPDEST DUP4 MLOAD PUSH8 0xFFFFFFFFFFFFFFFF DUP1 DUP3 GT ISZERO PUSH2 0x505 JUMPI PUSH1 0x0 DUP1 REVERT JUMPDEST DUP2 DUP7 ADD SWAP2 POP DUP7 PUSH1 0x1F DUP4 ADD SLT PUSH2 0x519 JUMPI PUSH1 0x0 DUP1 REVERT JUMPDEST DUP2 MLOAD PUSH1 0x20 PUSH2 0x529 PUSH2 0x461 DUP4 PUSH2 0x41C JUMP JUMPDEST DUP3 DUP2 MSTORE PUSH1 0x5 SWAP3 SWAP1 SWAP3 SHL DUP5 ADD DUP2 ADD SWAP2 DUP2 DUP2 ADD SWAP1 DUP11 DUP5 GT ISZERO PUSH2 0x548 JUMPI PUSH1 0x0 DUP1 REVERT JUMPDEST SWAP5 DUP3 ADD SWAP5 JUMPDEST DUP4 DUP7 LT ISZERO PUSH2 0x566 JUMPI DUP6 MLOAD DUP3 MSTORE SWAP5 DUP3 ADD SWAP5 SWAP1 DUP3 ADD SWAP1 PUSH2 0x54D JUMP JUMPDEST SWAP2 DUP10 ADD MLOAD SWAP2 SWAP8 POP SWAP1 SWAP4 POP POP POP DUP1 DUP3 GT ISZERO PUSH2 0x57F JUMPI PUSH1 0x0 DUP1 REVERT JUMPDEST POP PUSH2 0x58C DUP7 DUP3 DUP8 ADD PUSH2 0x440 JUMP JUMPDEST SWAP3 POP POP PUSH2 0x59B PUSH1 0x40 DUP6 ADD PUSH2 0x4BB JUMP JUMPDEST SWAP1 POP SWAP3 POP SWAP3 POP SWAP3 JUMP JUMPDEST PUSH1 0x0 PUSH1 0x20 DUP3 DUP5 SUB SLT ISZERO PUSH2 0x5B6 JUMPI PUSH1 0x0 DUP1 REVERT JUMPDEST DUP2 MLOAD PUSH1 0x1 PUSH1 0x1 PUSH1 0xA0 SHL SUB DUP2 AND DUP2 EQ PUSH2 0x5CD JUMPI PUSH1 0x0 DUP1 REVERT JUMPDEST SWAP4 SWAP3 POP POP POP JUMP INVALID LOG2 PUSH5 0x6970667358 0x22 SLT KECCAK256 0xAE LOG3 0xDD 0xC2 PUSH21 0xB5B5B535405C86520A08B7790F66BFF3089AE5A057 0xFB PUSH17 0xF20DF2A64736F6C634300081400330000 "},"methodIdentifiers":{"feedIds(uint256)":"b7f433d1","getFtsoV2CurrentFeedValues()":"f601bc8b"}}}}}